{
  "_format": "hh-sol-artifact-1",
  "contractName": "MyEpicGame",
  "sourceName": "contracts/MyEpicGame.sol",
  "abi": [
    {
      "inputs": [
        {
          "internalType": "string[]",
          "name": "characterNames",
          "type": "string[]"
        },
        {
          "internalType": "string[]",
          "name": "characterImageURIs",
          "type": "string[]"
        },
        {
          "internalType": "uint256[]",
          "name": "characterHp",
          "type": "uint256[]"
        },
        {
          "internalType": "uint256[]",
          "name": "characterAttackDmg",
          "type": "uint256[]"
        },
        {
          "internalType": "string",
          "name": "bossName",
          "type": "string"
        },
        {
          "internalType": "string",
          "name": "bossImageURI",
          "type": "string"
        },
        {
          "internalType": "uint256",
          "name": "bossHp",
          "type": "uint256"
        },
        {
          "internalType": "uint256",
          "name": "bossAttackDamage",
          "type": "uint256"
        }
      ],
      "stateMutability": "nonpayable",
      "type": "constructor"
    },
    {
      "anonymous": false,
      "inputs": [
        {
          "indexed": true,
          "internalType": "address",
          "name": "owner",
          "type": "address"
        },
        {
          "indexed": true,
          "internalType": "address",
          "name": "approved",
          "type": "address"
        },
        {
          "indexed": true,
          "internalType": "uint256",
          "name": "tokenId",
          "type": "uint256"
        }
      ],
      "name": "Approval",
      "type": "event"
    },
    {
      "anonymous": false,
      "inputs": [
        {
          "indexed": true,
          "internalType": "address",
          "name": "owner",
          "type": "address"
        },
        {
          "indexed": true,
          "internalType": "address",
          "name": "operator",
          "type": "address"
        },
        {
          "indexed": false,
          "internalType": "bool",
          "name": "approved",
          "type": "bool"
        }
      ],
      "name": "ApprovalForAll",
      "type": "event"
    },
    {
      "anonymous": false,
      "inputs": [
        {
          "indexed": false,
          "internalType": "uint256",
          "name": "newBossHp",
          "type": "uint256"
        },
        {
          "indexed": false,
          "internalType": "uint256",
          "name": "newPlayerHp",
          "type": "uint256"
        }
      ],
      "name": "AttackComplete",
      "type": "event"
    },
    {
      "anonymous": false,
      "inputs": [
        {
          "indexed": false,
          "internalType": "address",
          "name": "sender",
          "type": "address"
        },
        {
          "indexed": false,
          "internalType": "uint256",
          "name": "tokenId",
          "type": "uint256"
        },
        {
          "indexed": false,
          "internalType": "uint256",
          "name": "characterIndex",
          "type": "uint256"
        }
      ],
      "name": "CharacterNFTMinted",
      "type": "event"
    },
    {
      "anonymous": false,
      "inputs": [
        {
          "indexed": false,
          "internalType": "address",
          "name": "loser",
          "type": "address"
        },
        {
          "indexed": false,
          "internalType": "uint256",
          "name": "tokenId",
          "type": "uint256"
        },
        {
          "indexed": false,
          "internalType": "string",
          "name": "charName",
          "type": "string"
        }
      ],
      "name": "Losers",
      "type": "event"
    },
    {
      "anonymous": false,
      "inputs": [
        {
          "indexed": true,
          "internalType": "address",
          "name": "from",
          "type": "address"
        },
        {
          "indexed": true,
          "internalType": "address",
          "name": "to",
          "type": "address"
        },
        {
          "indexed": true,
          "internalType": "uint256",
          "name": "tokenId",
          "type": "uint256"
        }
      ],
      "name": "Transfer",
      "type": "event"
    },
    {
      "anonymous": false,
      "inputs": [
        {
          "indexed": false,
          "internalType": "address",
          "name": "winner",
          "type": "address"
        },
        {
          "indexed": false,
          "internalType": "uint256",
          "name": "tokenId",
          "type": "uint256"
        },
        {
          "indexed": false,
          "internalType": "string",
          "name": "charName",
          "type": "string"
        }
      ],
      "name": "Winners",
      "type": "event"
    },
    {
      "inputs": [
        {
          "internalType": "address",
          "name": "to",
          "type": "address"
        },
        {
          "internalType": "uint256",
          "name": "tokenId",
          "type": "uint256"
        }
      ],
      "name": "approve",
      "outputs": [],
      "stateMutability": "nonpayable",
      "type": "function"
    },
    {
      "inputs": [],
      "name": "attackBoss",
      "outputs": [],
      "stateMutability": "nonpayable",
      "type": "function"
    },
    {
      "inputs": [
        {
          "internalType": "address",
          "name": "owner",
          "type": "address"
        }
      ],
      "name": "balanceOf",
      "outputs": [
        {
          "internalType": "uint256",
          "name": "",
          "type": "uint256"
        }
      ],
      "stateMutability": "view",
      "type": "function"
    },
    {
      "inputs": [],
      "name": "bigBoss",
      "outputs": [
        {
          "internalType": "string",
          "name": "name",
          "type": "string"
        },
        {
          "internalType": "string",
          "name": "imageURI",
          "type": "string"
        },
        {
          "internalType": "uint256",
          "name": "hp",
          "type": "uint256"
        },
        {
          "internalType": "uint256",
          "name": "maxHp",
          "type": "uint256"
        },
        {
          "internalType": "uint256",
          "name": "attackDamage",
          "type": "uint256"
        }
      ],
      "stateMutability": "view",
      "type": "function"
    },
    {
      "inputs": [],
      "name": "checkIfUserHasNFT",
      "outputs": [
        {
          "components": [
            {
              "internalType": "uint256",
              "name": "characterIndex",
              "type": "uint256"
            },
            {
              "internalType": "string",
              "name": "name",
              "type": "string"
            },
            {
              "internalType": "string",
              "name": "imageURI",
              "type": "string"
            },
            {
              "internalType": "uint256",
              "name": "hp",
              "type": "uint256"
            },
            {
              "internalType": "uint256",
              "name": "maxHp",
              "type": "uint256"
            },
            {
              "internalType": "uint256",
              "name": "attackDamage",
              "type": "uint256"
            }
          ],
          "internalType": "struct MyEpicGame.CharacterAttributes",
          "name": "",
          "type": "tuple"
        }
      ],
      "stateMutability": "view",
      "type": "function"
    },
    {
      "inputs": [],
      "name": "getAllDefaultCharacters",
      "outputs": [
        {
          "components": [
            {
              "internalType": "uint256",
              "name": "characterIndex",
              "type": "uint256"
            },
            {
              "internalType": "string",
              "name": "name",
              "type": "string"
            },
            {
              "internalType": "string",
              "name": "imageURI",
              "type": "string"
            },
            {
              "internalType": "uint256",
              "name": "hp",
              "type": "uint256"
            },
            {
              "internalType": "uint256",
              "name": "maxHp",
              "type": "uint256"
            },
            {
              "internalType": "uint256",
              "name": "attackDamage",
              "type": "uint256"
            }
          ],
          "internalType": "struct MyEpicGame.CharacterAttributes[]",
          "name": "",
          "type": "tuple[]"
        }
      ],
      "stateMutability": "view",
      "type": "function"
    },
    {
      "inputs": [
        {
          "internalType": "uint256",
          "name": "tokenId",
          "type": "uint256"
        }
      ],
      "name": "getApproved",
      "outputs": [
        {
          "internalType": "address",
          "name": "",
          "type": "address"
        }
      ],
      "stateMutability": "view",
      "type": "function"
    },
    {
      "inputs": [],
      "name": "getBigBoss",
      "outputs": [
        {
          "components": [
            {
              "internalType": "string",
              "name": "name",
              "type": "string"
            },
            {
              "internalType": "string",
              "name": "imageURI",
              "type": "string"
            },
            {
              "internalType": "uint256",
              "name": "hp",
              "type": "uint256"
            },
            {
              "internalType": "uint256",
              "name": "maxHp",
              "type": "uint256"
            },
            {
              "internalType": "uint256",
              "name": "attackDamage",
              "type": "uint256"
            }
          ],
          "internalType": "struct MyEpicGame.BigBoss",
          "name": "",
          "type": "tuple"
        }
      ],
      "stateMutability": "view",
      "type": "function"
    },
    {
      "inputs": [
        {
          "internalType": "address",
          "name": "owner",
          "type": "address"
        },
        {
          "internalType": "address",
          "name": "operator",
          "type": "address"
        }
      ],
      "name": "isApprovedForAll",
      "outputs": [
        {
          "internalType": "bool",
          "name": "",
          "type": "bool"
        }
      ],
      "stateMutability": "view",
      "type": "function"
    },
    {
      "inputs": [
        {
          "internalType": "uint256",
          "name": "_characterIndex",
          "type": "uint256"
        }
      ],
      "name": "mintCharacterNFT",
      "outputs": [],
      "stateMutability": "payable",
      "type": "function"
    },
    {
      "inputs": [],
      "name": "name",
      "outputs": [
        {
          "internalType": "string",
          "name": "",
          "type": "string"
        }
      ],
      "stateMutability": "view",
      "type": "function"
    },
    {
      "inputs": [
        {
          "internalType": "uint256",
          "name": "",
          "type": "uint256"
        }
      ],
      "name": "nftHolderAttributes",
      "outputs": [
        {
          "internalType": "uint256",
          "name": "characterIndex",
          "type": "uint256"
        },
        {
          "internalType": "string",
          "name": "name",
          "type": "string"
        },
        {
          "internalType": "string",
          "name": "imageURI",
          "type": "string"
        },
        {
          "internalType": "uint256",
          "name": "hp",
          "type": "uint256"
        },
        {
          "internalType": "uint256",
          "name": "maxHp",
          "type": "uint256"
        },
        {
          "internalType": "uint256",
          "name": "attackDamage",
          "type": "uint256"
        }
      ],
      "stateMutability": "view",
      "type": "function"
    },
    {
      "inputs": [
        {
          "internalType": "address",
          "name": "",
          "type": "address"
        }
      ],
      "name": "nftHolders",
      "outputs": [
        {
          "internalType": "uint256",
          "name": "",
          "type": "uint256"
        }
      ],
      "stateMutability": "view",
      "type": "function"
    },
    {
      "inputs": [],
      "name": "owner",
      "outputs": [
        {
          "internalType": "address payable",
          "name": "",
          "type": "address"
        }
      ],
      "stateMutability": "view",
      "type": "function"
    },
    {
      "inputs": [
        {
          "internalType": "uint256",
          "name": "tokenId",
          "type": "uint256"
        }
      ],
      "name": "ownerOf",
      "outputs": [
        {
          "internalType": "address",
          "name": "",
          "type": "address"
        }
      ],
      "stateMutability": "view",
      "type": "function"
    },
    {
      "inputs": [
        {
          "internalType": "address",
          "name": "from",
          "type": "address"
        },
        {
          "internalType": "address",
          "name": "to",
          "type": "address"
        },
        {
          "internalType": "uint256",
          "name": "tokenId",
          "type": "uint256"
        }
      ],
      "name": "safeTransferFrom",
      "outputs": [],
      "stateMutability": "nonpayable",
      "type": "function"
    },
    {
      "inputs": [
        {
          "internalType": "address",
          "name": "from",
          "type": "address"
        },
        {
          "internalType": "address",
          "name": "to",
          "type": "address"
        },
        {
          "internalType": "uint256",
          "name": "tokenId",
          "type": "uint256"
        },
        {
          "internalType": "bytes",
          "name": "_data",
          "type": "bytes"
        }
      ],
      "name": "safeTransferFrom",
      "outputs": [],
      "stateMutability": "nonpayable",
      "type": "function"
    },
    {
      "inputs": [
        {
          "internalType": "address",
          "name": "operator",
          "type": "address"
        },
        {
          "internalType": "bool",
          "name": "approved",
          "type": "bool"
        }
      ],
      "name": "setApprovalForAll",
      "outputs": [],
      "stateMutability": "nonpayable",
      "type": "function"
    },
    {
      "inputs": [
        {
          "internalType": "bytes4",
          "name": "interfaceId",
          "type": "bytes4"
        }
      ],
      "name": "supportsInterface",
      "outputs": [
        {
          "internalType": "bool",
          "name": "",
          "type": "bool"
        }
      ],
      "stateMutability": "view",
      "type": "function"
    },
    {
      "inputs": [],
      "name": "symbol",
      "outputs": [
        {
          "internalType": "string",
          "name": "",
          "type": "string"
        }
      ],
      "stateMutability": "view",
      "type": "function"
    },
    {
      "inputs": [
        {
          "internalType": "uint256",
          "name": "_tokenId",
          "type": "uint256"
        }
      ],
      "name": "tokenURI",
      "outputs": [
        {
          "internalType": "string",
          "name": "",
          "type": "string"
        }
      ],
      "stateMutability": "view",
      "type": "function"
    },
    {
      "inputs": [
        {
          "internalType": "address",
          "name": "from",
          "type": "address"
        },
        {
          "internalType": "address",
          "name": "to",
          "type": "address"
        },
        {
          "internalType": "uint256",
          "name": "tokenId",
          "type": "uint256"
        }
      ],
      "name": "transferFrom",
      "outputs": [],
      "stateMutability": "nonpayable",
      "type": "function"
    },
    {
      "inputs": [],
      "name": "withdraw",
      "outputs": [],
      "stateMutability": "nonpayable",
      "type": "function"
    }
  ],
  "bytecode": "0x60806040523480156200001157600080fd5b50604051620063e8380380620063e8833981810160405281019062000037919062000bb0565b6040518060400160405280600b81526020017f736f6c646965722d616e740000000000000000000000000000000000000000008152506040518060400160405280600381526020017f414e5400000000000000000000000000000000000000000000000000000000008152508160009080519060200190620000bb92919062000756565b508060019080519060200190620000d492919062000756565b50505033600660006101000a81548173ffffffffffffffffffffffffffffffffffffffff021916908373ffffffffffffffffffffffffffffffffffffffff1602179055506040518060a0016040528085815260200184815260200183815260200183815260200182815250600a60008201518160000190805190602001906200015f92919062000756565b5060208201518160010190805190602001906200017e92919062000756565b50604082015181600201556060820151816003015560808201518160040155905050620003016040518060600160405280602a8152602001620063be602a9139600a6000018054620001d09062000d62565b80601f0160208091040260200160405190810160405280929190818152602001828054620001fe9062000d62565b80156200024f5780601f1062000223576101008083540402835291602001916200024f565b820191906000526020600020905b8154815290600101906020018083116200023157829003601f168201915b5050505050600a60020154600a60010180546200026c9062000d62565b80601f01602080910402602001604051908101604052809291908181526020018280546200029a9062000d62565b8015620002eb5780601f10620002bf57610100808354040283529160200191620002eb565b820191906000526020600020905b815481529060010190602001808311620002cd57829003601f168201915b50505050506200066b60201b6200238a1760201c565b60005b8851811015620006455760086040518060c001604052808381526020018b848151811062000337576200033662000d98565b5b602002602001015181526020018a84815181106200035a576200035962000d98565b5b602002602001015181526020018984815181106200037d576200037c62000d98565b5b60200260200101518152602001898481518110620003a0576200039f62000d98565b5b60200260200101518152602001888481518110620003c357620003c262000d98565b5b602002602001015181525090806001815401808255809150506001900390600052602060002090600602016000909190919091506000820151816000015560208201518160010190805190602001906200041f92919062000756565b5060408201518160020190805190602001906200043e92919062000756565b50606082015181600301556080820151816004015560a08201518160050155505060006008828154811062000478576200047762000d98565b5b90600052602060002090600602016040518060c001604052908160008201548152602001600182018054620004ad9062000d62565b80601f0160208091040260200160405190810160405280929190818152602001828054620004db9062000d62565b80156200052c5780601f1062000500576101008083540402835291602001916200052c565b820191906000526020600020905b8154815290600101906020018083116200050e57829003601f168201915b50505050508152602001600282018054620005479062000d62565b80601f0160208091040260200160405190810160405280929190818152602001828054620005759062000d62565b8015620005c65780601f106200059a57610100808354040283529160200191620005c6565b820191906000526020600020905b815481529060010190602001808311620005a857829003601f168201915b50505050508152602001600382015481526020016004820154815260200160058201548152505090506200062d60405180606001604052806025815260200162006399602591398260200151836060015184604001516200066b60201b6200238a1760201c565b506001816200063d919062000df6565b905062000304565b506200065d60076200071760201b6200242c1760201c565b505050505050505062000f23565b620007118484848460405160240162000688949392919062000ec1565b6040516020818303038152906040527f8d142cdd000000000000000000000000000000000000000000000000000000007bffffffffffffffffffffffffffffffffffffffffffffffffffffffff19166020820180517bffffffffffffffffffffffffffffffffffffffffffffffffffffffff83818316178352505050506200072d60201b60201c565b50505050565b6001816000016000828254019250508190555050565b60008151905060006a636f6e736f6c652e6c6f679050602083016000808483855afa5050505050565b828054620007649062000d62565b90600052602060002090601f016020900481019282620007885760008555620007d4565b82601f10620007a357805160ff1916838001178555620007d4565b82800160010185558215620007d4579182015b82811115620007d3578251825591602001919060010190620007b6565b5b509050620007e39190620007e7565b5090565b5b8082111562000802576000816000905550600101620007e8565b5090565b6000604051905090565b600080fd5b600080fd5b600080fd5b6000601f19601f8301169050919050565b7f4e487b7100000000000000000000000000000000000000000000000000000000600052604160045260246000fd5b6200086a826200081f565b810181811067ffffffffffffffff821117156200088c576200088b62000830565b5b80604052505050565b6000620008a162000806565b9050620008af82826200085f565b919050565b600067ffffffffffffffff821115620008d257620008d162000830565b5b602082029050602081019050919050565b600080fd5b600080fd5b600067ffffffffffffffff8211156200090b576200090a62000830565b5b62000916826200081f565b9050602081019050919050565b60005b838110156200094357808201518184015260208101905062000926565b8381111562000953576000848401525b50505050565b6000620009706200096a84620008ed565b62000895565b9050828152602081018484840111156200098f576200098e620008e8565b5b6200099c84828562000923565b509392505050565b600082601f830112620009bc57620009bb6200081a565b5b8151620009ce84826020860162000959565b91505092915050565b6000620009ee620009e884620008b4565b62000895565b9050808382526020820190506020840283018581111562000a145762000a13620008e3565b5b835b8181101562000a6257805167ffffffffffffffff81111562000a3d5762000a3c6200081a565b5b80860162000a4c8982620009a4565b8552602085019450505060208101905062000a16565b5050509392505050565b600082601f83011262000a845762000a836200081a565b5b815162000a96848260208601620009d7565b91505092915050565b600067ffffffffffffffff82111562000abd5762000abc62000830565b5b602082029050602081019050919050565b6000819050919050565b62000ae38162000ace565b811462000aef57600080fd5b50565b60008151905062000b038162000ad8565b92915050565b600062000b2062000b1a8462000a9f565b62000895565b9050808382526020820190506020840283018581111562000b465762000b45620008e3565b5b835b8181101562000b73578062000b5e888262000af2565b84526020840193505060208101905062000b48565b5050509392505050565b600082601f83011262000b955762000b946200081a565b5b815162000ba784826020860162000b09565b91505092915050565b600080600080600080600080610100898b03121562000bd45762000bd362000810565b5b600089015167ffffffffffffffff81111562000bf55762000bf462000815565b5b62000c038b828c0162000a6c565b985050602089015167ffffffffffffffff81111562000c275762000c2662000815565b5b62000c358b828c0162000a6c565b975050604089015167ffffffffffffffff81111562000c595762000c5862000815565b5b62000c678b828c0162000b7d565b965050606089015167ffffffffffffffff81111562000c8b5762000c8a62000815565b5b62000c998b828c0162000b7d565b955050608089015167ffffffffffffffff81111562000cbd5762000cbc62000815565b5b62000ccb8b828c01620009a4565b94505060a089015167ffffffffffffffff81111562000cef5762000cee62000815565b5b62000cfd8b828c01620009a4565b93505060c062000d108b828c0162000af2565b92505060e062000d238b828c0162000af2565b9150509295985092959890939650565b7f4e487b7100000000000000000000000000000000000000000000000000000000600052602260045260246000fd5b6000600282049050600182168062000d7b57607f821691505b6020821081141562000d925762000d9162000d33565b5b50919050565b7f4e487b7100000000000000000000000000000000000000000000000000000000600052603260045260246000fd5b7f4e487b7100000000000000000000000000000000000000000000000000000000600052601160045260246000fd5b600062000e038262000ace565b915062000e108362000ace565b9250827fffffffffffffffffffffffffffffffffffffffffffffffffffffffffffffffff0382111562000e485762000e4762000dc7565b5b828201905092915050565b600081519050919050565b600082825260208201905092915050565b600062000e7c8262000e53565b62000e88818562000e5e565b935062000e9a81856020860162000923565b62000ea5816200081f565b840191505092915050565b62000ebb8162000ace565b82525050565b6000608082019050818103600083015262000edd818762000e6f565b9050818103602083015262000ef3818662000e6f565b905062000f04604083018562000eb0565b818103606083015262000f18818462000e6f565b905095945050505050565b6154668062000f336000396000f3fe6080604052600436106101405760003560e01c80638da5cb5b116100b6578063b953084e1161006f578063b953084e14610477578063c87b56dd146104a2578063c8cf27f4146104df578063d4f24c5b1461050a578063e985e9c514610521578063f8b81ef71461055e57610140565b80638da5cb5b1461035e57806395d89b411461038957806398da4c95146103b4578063a22cb465146103f6578063a9c326791461041f578063b88d4fde1461044e57610140565b806323b872dd1161010857806323b872dd1461023e5780633ccfd60b1461026757806342842e0e1461027e5780636352211e146102a757806370a08231146102e45780637df124a11461032157610140565b806301ffc9a7146101455780630665f9611461018257806306fdde03146101ad578063081812fc146101d8578063095ea7b314610215575b600080fd5b34801561015157600080fd5b5061016c6004803603810190610167919061361b565b61057a565b6040516101799190613663565b60405180910390f35b34801561018e57600080fd5b5061019761065c565b6040516101a491906137ad565b60405180910390f35b3480156101b957600080fd5b506101c26107b8565b6040516101cf9190613819565b60405180910390f35b3480156101e457600080fd5b506101ff60048036038101906101fa9190613867565b61084a565b60405161020c91906138d5565b60405180910390f35b34801561022157600080fd5b5061023c6004803603810190610237919061391c565b6108cf565b005b34801561024a57600080fd5b506102656004803603810190610260919061395c565b6109e7565b005b34801561027357600080fd5b5061027c610a47565b005b34801561028a57600080fd5b506102a560048036038101906102a0919061395c565b610b1e565b005b3480156102b357600080fd5b506102ce60048036038101906102c99190613867565b610b3e565b6040516102db91906138d5565b60405180910390f35b3480156102f057600080fd5b5061030b600480360381019061030691906139af565b610bf0565b60405161031891906139eb565b60405180910390f35b34801561032d57600080fd5b50610348600480360381019061034391906139af565b610ca8565b60405161035591906139eb565b60405180910390f35b34801561036a57600080fd5b50610373610cc0565b6040516103809190613a27565b60405180910390f35b34801561039557600080fd5b5061039e610ce6565b6040516103ab9190613819565b60405180910390f35b3480156103c057600080fd5b506103db60048036038101906103d69190613867565b610d78565b6040516103ed96959493929190613a42565b60405180910390f35b34801561040257600080fd5b5061041d60048036038101906104189190613add565b610ec4565b005b34801561042b57600080fd5b50610434610eda565b604051610445959493929190613b1d565b60405180910390f35b34801561045a57600080fd5b5061047560048036038101906104709190613cb3565b61100e565b005b34801561048357600080fd5b5061048c611070565b6040516104999190613e88565b60405180910390f35b3480156104ae57600080fd5b506104c960048036038101906104c49190613867565b61121b565b6040516104d69190613819565b60405180910390f35b3480156104eb57600080fd5b506104f4611436565b6040516105019190613f3a565b60405180910390f35b34801561051657600080fd5b5061051f61160e565b005b34801561052d57600080fd5b5061054860048036038101906105439190613f5c565b611f70565b6040516105559190613663565b60405180910390f35b61057860048036038101906105739190613867565b612004565b005b60007f80ac58cd000000000000000000000000000000000000000000000000000000007bffffffffffffffffffffffffffffffffffffffffffffffffffffffff1916827bffffffffffffffffffffffffffffffffffffffffffffffffffffffff1916148061064557507f5b5e139f000000000000000000000000000000000000000000000000000000007bffffffffffffffffffffffffffffffffffffffffffffffffffffffff1916827bffffffffffffffffffffffffffffffffffffffffffffffffffffffff1916145b80610655575061065482612442565b5b9050919050565b6106646134a7565b600a6040518060a001604052908160008201805461068190613fcb565b80601f01602080910402602001604051908101604052809291908181526020018280546106ad90613fcb565b80156106fa5780601f106106cf576101008083540402835291602001916106fa565b820191906000526020600020905b8154815290600101906020018083116106dd57829003601f168201915b5050505050815260200160018201805461071390613fcb565b80601f016020809104026020016040519081016040528092919081815260200182805461073f90613fcb565b801561078c5780601f106107615761010080835404028352916020019161078c565b820191906000526020600020905b81548152906001019060200180831161076f57829003601f168201915b505050505081526020016002820154815260200160038201548152602001600482015481525050905090565b6060600080546107c790613fcb565b80601f01602080910402602001604051908101604052809291908181526020018280546107f390613fcb565b80156108405780601f1061081557610100808354040283529160200191610840565b820191906000526020600020905b81548152906001019060200180831161082357829003601f168201915b5050505050905090565b6000610855826124ac565b610894576040517f08c379a000000000000000000000000000000000000000000000000000000000815260040161088b9061406f565b60405180910390fd5b6004600083815260200190815260200160002060009054906101000a900473ffffffffffffffffffffffffffffffffffffffff169050919050565b60006108da82610b3e565b90508073ffffffffffffffffffffffffffffffffffffffff168373ffffffffffffffffffffffffffffffffffffffff16141561094b576040517f08c379a000000000000000000000000000000000000000000000000000000000815260040161094290614101565b60405180910390fd5b8073ffffffffffffffffffffffffffffffffffffffff1661096a612518565b73ffffffffffffffffffffffffffffffffffffffff161480610999575061099881610993612518565b611f70565b5b6109d8576040517f08c379a00000000000000000000000000000000000000000000000000000000081526004016109cf90614193565b60405180910390fd5b6109e28383612520565b505050565b6109f86109f2612518565b826125d9565b610a37576040517f08c379a0000000000000000000000000000000000000000000000000000000008152600401610a2e90614225565b60405180910390fd5b610a428383836126b7565b505050565b60004790506000600660009054906101000a900473ffffffffffffffffffffffffffffffffffffffff1673ffffffffffffffffffffffffffffffffffffffff1682604051610a9490614276565b60006040518083038185875af1925050503d8060008114610ad1576040519150601f19603f3d011682016040523d82523d6000602084013e610ad6565b606091505b5050905080610b1a576040517f08c379a0000000000000000000000000000000000000000000000000000000008152600401610b11906142d7565b60405180910390fd5b5050565b610b398383836040518060200160405280600081525061100e565b505050565b6000806002600084815260200190815260200160002060009054906101000a900473ffffffffffffffffffffffffffffffffffffffff169050600073ffffffffffffffffffffffffffffffffffffffff168173ffffffffffffffffffffffffffffffffffffffff161415610be7576040517f08c379a0000000000000000000000000000000000000000000000000000000008152600401610bde90614369565b60405180910390fd5b80915050919050565b60008073ffffffffffffffffffffffffffffffffffffffff168273ffffffffffffffffffffffffffffffffffffffff161415610c61576040517f08c379a0000000000000000000000000000000000000000000000000000000008152600401610c58906143fb565b60405180910390fd5b600360008373ffffffffffffffffffffffffffffffffffffffff1673ffffffffffffffffffffffffffffffffffffffff168152602001908152602001600020549050919050565b600f6020528060005260406000206000915090505481565b600660009054906101000a900473ffffffffffffffffffffffffffffffffffffffff1681565b606060018054610cf590613fcb565b80601f0160208091040260200160405190810160405280929190818152602001828054610d2190613fcb565b8015610d6e5780601f10610d4357610100808354040283529160200191610d6e565b820191906000526020600020905b815481529060010190602001808311610d5157829003601f168201915b5050505050905090565b6009602052806000526040600020600091509050806000015490806001018054610da190613fcb565b80601f0160208091040260200160405190810160405280929190818152602001828054610dcd90613fcb565b8015610e1a5780601f10610def57610100808354040283529160200191610e1a565b820191906000526020600020905b815481529060010190602001808311610dfd57829003601f168201915b505050505090806002018054610e2f90613fcb565b80601f0160208091040260200160405190810160405280929190818152602001828054610e5b90613fcb565b8015610ea85780601f10610e7d57610100808354040283529160200191610ea8565b820191906000526020600020905b815481529060010190602001808311610e8b57829003601f168201915b5050505050908060030154908060040154908060050154905086565b610ed6610ecf612518565b838361291e565b5050565b600a806000018054610eeb90613fcb565b80601f0160208091040260200160405190810160405280929190818152602001828054610f1790613fcb565b8015610f645780601f10610f3957610100808354040283529160200191610f64565b820191906000526020600020905b815481529060010190602001808311610f4757829003601f168201915b505050505090806001018054610f7990613fcb565b80601f0160208091040260200160405190810160405280929190818152602001828054610fa590613fcb565b8015610ff25780601f10610fc757610100808354040283529160200191610ff2565b820191906000526020600020905b815481529060010190602001808311610fd557829003601f168201915b5050505050908060020154908060030154908060040154905085565b61101f611019612518565b836125d9565b61105e576040517f08c379a000000000000000000000000000000000000000000000000000000000815260040161105590614225565b60405180910390fd5b61106a84848484612a8b565b50505050565b60606008805480602002602001604051908101604052809291908181526020016000905b8282101561121257838290600052602060002090600602016040518060c0016040529081600082015481526020016001820180546110d190613fcb565b80601f01602080910402602001604051908101604052809291908181526020018280546110fd90613fcb565b801561114a5780601f1061111f5761010080835404028352916020019161114a565b820191906000526020600020905b81548152906001019060200180831161112d57829003601f168201915b5050505050815260200160028201805461116390613fcb565b80601f016020809104026020016040519081016040528092919081815260200182805461118f90613fcb565b80156111dc5780601f106111b1576101008083540402835291602001916111dc565b820191906000526020600020905b8154815290600101906020018083116111bf57829003601f168201915b50505050508152602001600382015481526020016004820154815260200160058201548152505081526020019060010190611094565b50505050905090565b60606000600960008481526020019081526020016000206040518060c00160405290816000820154815260200160018201805461125790613fcb565b80601f016020809104026020016040519081016040528092919081815260200182805461128390613fcb565b80156112d05780601f106112a5576101008083540402835291602001916112d0565b820191906000526020600020905b8154815290600101906020018083116112b357829003601f168201915b505050505081526020016002820180546112e990613fcb565b80601f016020809104026020016040519081016040528092919081815260200182805461131590613fcb565b80156113625780601f1061133757610100808354040283529160200191611362565b820191906000526020600020905b81548152906001019060200180831161134557829003601f168201915b5050505050815260200160038201548152602001600482015481526020016005820154815250509050600061139a8260600151612ae7565b905060006113ab8360800151612ae7565b905060006113bc8460a00151612ae7565b9050600061140285602001516113d189612ae7565b87604001518787876040516020016113ee96959493929190614703565b604051602081830303815290604052612c48565b905060008160405160200161141791906147f4565b6040516020818303038152906040529050809650505050505050919050565b61143e6134d6565b6000600f60003373ffffffffffffffffffffffffffffffffffffffff1673ffffffffffffffffffffffffffffffffffffffff16815260200190815260200160002054905060008111156115fd57600960008281526020019081526020016000206040518060c0016040529081600082015481526020016001820180546114c390613fcb565b80601f01602080910402602001604051908101604052809291908181526020018280546114ef90613fcb565b801561153c5780601f106115115761010080835404028352916020019161153c565b820191906000526020600020905b81548152906001019060200180831161151f57829003601f168201915b5050505050815260200160028201805461155590613fcb565b80601f016020809104026020016040519081016040528092919081815260200182805461158190613fcb565b80156115ce5780601f106115a3576101008083540402835291602001916115ce565b820191906000526020600020905b8154815290600101906020018083116115b157829003601f168201915b50505050508152602001600382015481526020016004820154815260200160058201548152505091505061160b565b6116056134d6565b80925050505b90565b6000600f60003373ffffffffffffffffffffffffffffffffffffffff1673ffffffffffffffffffffffffffffffffffffffff16815260200190815260200160002054905060006009600083815260200190815260200160002090506117216040518060600160405280603c81526020016153f5603c913982600101805461169490613fcb565b80601f01602080910402602001604051908101604052809291908181526020018280546116c090613fcb565b801561170d5780601f106116e25761010080835404028352916020019161170d565b820191906000526020600020905b8154815290600101906020018083116116f057829003601f168201915b505050505083600301548460050154612de0565b6117f96040518060400160405280601b81526020017f426f73732025732068617320257320485020616e642025732041440000000000815250600a600001805461176a90613fcb565b80601f016020809104026020016040519081016040528092919081815260200182805461179690613fcb565b80156117e35780601f106117b8576101008083540402835291602001916117e3565b820191906000526020600020905b8154815290600101906020018083116117c657829003601f168201915b5050505050600a60020154600a60040154612de0565b6000816003015411611840576040517f08c379a000000000000000000000000000000000000000000000000000000000815260040161183790614888565b60405180910390fd5b6000600a6002015411611888576040517f08c379a000000000000000000000000000000000000000000000000000000000815260040161187f9061491a565b60405180910390fd5b8060050154600a600201541015611b96576000600a6002018190555061197c6040518060400160405280601b81526020017f426f73732025732068617320257320485020616e642025732041440000000000815250600a60000180546118ed90613fcb565b80601f016020809104026020016040519081016040528092919081815260200182805461191990613fcb565b80156119665780601f1061193b57610100808354040283529160200191611966565b820191906000526020600020905b81548152906001019060200180831161194957829003601f168201915b5050505050600a60020154600a60040154612de0565b611a476040518060400160405280601f81526020017f536f6c6469657220416e742025732068617320776f6e207468652067616d65008152508260010180546119c490613fcb565b80601f01602080910402602001604051908101604052809291908181526020018280546119f090613fcb565b8015611a3d5780601f10611a1257610100808354040283529160200191611a3d565b820191906000526020600020905b815481529060010190602001808311611a2057829003601f168201915b5050505050612e82565b611b136040518060400160405280601d81526020017f54686520426f737320257320686173206c6f7374207468652067616d65000000815250600a6000018054611a9090613fcb565b80601f0160208091040260200160405190810160405280929190818152602001828054611abc90613fcb565b8015611b095780601f10611ade57610100808354040283529160200191611b09565b820191906000526020600020905b815481529060010190602001808311611aec57829003601f168201915b5050505050612e82565b7f22eab1d320e837da74f0b4d9e86413d495558abaa6b7065ae3a698436619693c338383600101604051611b49939291906149cf565b60405180910390a17fba1013f2eeb88115830d7202c1879339e3f90ea456055440a8401a04e7ed406c306001600a600001604051611b8993929190614a52565b60405180910390a1611bb5565b8060050154600a60020154611bab9190614abf565b600a600201819055505b600a6004015481600301541015611ebf5760008160030181905550611ca56040518060400160405280601d81526020017f506c617965722025732068617320257320485020616e64202573204144000000815250826001018054611c1890613fcb565b80601f0160208091040260200160405190810160405280929190818152602001828054611c4490613fcb565b8015611c915780601f10611c6657610100808354040283529160200191611c91565b820191906000526020600020905b815481529060010190602001808311611c7457829003601f168201915b505050505083600301548460050154612de0565b611d706040518060400160405280602081526020017f536f6c6469657220416e7420257320686173206c6f7374207468652067616d65815250826001018054611ced90613fcb565b80601f0160208091040260200160405190810160405280929190818152602001828054611d1990613fcb565b8015611d665780601f10611d3b57610100808354040283529160200191611d66565b820191906000526020600020905b815481529060010190602001808311611d4957829003601f168201915b5050505050612e82565b611e3c6040518060400160405280601c81526020017f54686520426f73732025732068617320576f6e207468652067616d6500000000815250600a6000018054611db990613fcb565b80601f0160208091040260200160405190810160405280929190818152602001828054611de590613fcb565b8015611e325780601f10611e0757610100808354040283529160200191611e32565b820191906000526020600020905b815481529060010190602001808311611e1557829003601f168201915b5050505050612e82565b7fba1013f2eeb88115830d7202c1879339e3f90ea456055440a8401a04e7ed406c338383600101604051611e72939291906149cf565b60405180910390a17f22eab1d320e837da74f0b4d9e86413d495558abaa6b7065ae3a698436619693c306001600a600001604051611eb293929190614a52565b60405180910390a1611edd565b600a600401548160030154611ed49190614abf565b81600301819055505b7f838ab28464562786a6c4ab2311964b82fa60bd9b14aa7e856af1f3f18d41a414600a600201548260030154604051611f17929190614af3565b60405180910390a1611f4660405180606001604052806025815260200161533a60259139600a60020154612f1e565b611f6c60405180606001604052806028815260200161539f602891398260030154612f1e565b5050565b6000600560008473ffffffffffffffffffffffffffffffffffffffff1673ffffffffffffffffffffffffffffffffffffffff16815260200190815260200160002060008373ffffffffffffffffffffffffffffffffffffffff1673ffffffffffffffffffffffffffffffffffffffff16815260200190815260200160002060009054906101000a900460ff16905092915050565b600066038d7ea4c68000905080341015612053576040517f08c379a000000000000000000000000000000000000000000000000000000000815260040161204a90614b68565b60405180910390fd5b600061205f6007612fba565b905061206b3382612fc8565b6040518060c00160405280848152602001600885815481106120905761208f614b88565b5b906000526020600020906006020160010180546120ac90613fcb565b80601f01602080910402602001604051908101604052809291908181526020018280546120d890613fcb565b80156121255780601f106120fa57610100808354040283529160200191612125565b820191906000526020600020905b81548152906001019060200180831161210857829003601f168201915b505050505081526020016008858154811061214357612142614b88565b5b9060005260206000209060060201600201805461215f90613fcb565b80601f016020809104026020016040519081016040528092919081815260200182805461218b90613fcb565b80156121d85780601f106121ad576101008083540402835291602001916121d8565b820191906000526020600020905b8154815290600101906020018083116121bb57829003601f168201915b50505050508152602001600885815481106121f6576121f5614b88565b5b90600052602060002090600602016003015481526020016008858154811061222157612220614b88565b5b90600052602060002090600602016004015481526020016008858154811061224c5761224b614b88565b5b9060005260206000209060060201600501548152506009600083815260200190815260200160002060008201518160000155602082015181600101908051906020019061229a92919061350c565b5060408201518160020190805190602001906122b792919061350c565b50606082015181600301556080820151816004015560a082015181600501559050506122fc6040518060600160405280602e81526020016153c7602e91398285612fe6565b80600f60003373ffffffffffffffffffffffffffffffffffffffff1673ffffffffffffffffffffffffffffffffffffffff1681526020019081526020016000208190555061234a600761242c565b7f4bc303fd457a97b4691b9af582ce71868a3d258638c8d4f8c60988a0f0bfb8cd33828560405161237d93929190614bb7565b60405180910390a1505050565b612426848484846040516024016123a49493929190614bee565b6040516020818303038152906040527f8d142cdd000000000000000000000000000000000000000000000000000000007bffffffffffffffffffffffffffffffffffffffffffffffffffffffff19166020820180517bffffffffffffffffffffffffffffffffffffffffffffffffffffffff8381831617835250505050613085565b50505050565b6001816000016000828254019250508190555050565b60007f01ffc9a7000000000000000000000000000000000000000000000000000000007bffffffffffffffffffffffffffffffffffffffffffffffffffffffff1916827bffffffffffffffffffffffffffffffffffffffffffffffffffffffff1916149050919050565b60008073ffffffffffffffffffffffffffffffffffffffff166002600084815260200190815260200160002060009054906101000a900473ffffffffffffffffffffffffffffffffffffffff1673ffffffffffffffffffffffffffffffffffffffff1614159050919050565b600033905090565b816004600083815260200190815260200160002060006101000a81548173ffffffffffffffffffffffffffffffffffffffff021916908373ffffffffffffffffffffffffffffffffffffffff160217905550808273ffffffffffffffffffffffffffffffffffffffff1661259383610b3e565b73ffffffffffffffffffffffffffffffffffffffff167f8c5be1e5ebec7d5bd14f71427d1e84f3dd0314c0f7b2291e5b200ac8c7c3b92560405160405180910390a45050565b60006125e4826124ac565b612623576040517f08c379a000000000000000000000000000000000000000000000000000000000815260040161261a90614cba565b60405180910390fd5b600061262e83610b3e565b90508073ffffffffffffffffffffffffffffffffffffffff168473ffffffffffffffffffffffffffffffffffffffff16148061269d57508373ffffffffffffffffffffffffffffffffffffffff166126858461084a565b73ffffffffffffffffffffffffffffffffffffffff16145b806126ae57506126ad8185611f70565b5b91505092915050565b8273ffffffffffffffffffffffffffffffffffffffff166126d782610b3e565b73ffffffffffffffffffffffffffffffffffffffff161461272d576040517f08c379a000000000000000000000000000000000000000000000000000000000815260040161272490614d4c565b60405180910390fd5b600073ffffffffffffffffffffffffffffffffffffffff168273ffffffffffffffffffffffffffffffffffffffff16141561279d576040517f08c379a000000000000000000000000000000000000000000000000000000000815260040161279490614dde565b60405180910390fd5b6127a88383836130ae565b6127b3600082612520565b6001600360008573ffffffffffffffffffffffffffffffffffffffff1673ffffffffffffffffffffffffffffffffffffffff16815260200190815260200160002060008282546128039190614abf565b925050819055506001600360008473ffffffffffffffffffffffffffffffffffffffff1673ffffffffffffffffffffffffffffffffffffffff168152602001908152602001600020600082825461285a9190614dfe565b92505081905550816002600083815260200190815260200160002060006101000a81548173ffffffffffffffffffffffffffffffffffffffff021916908373ffffffffffffffffffffffffffffffffffffffff160217905550808273ffffffffffffffffffffffffffffffffffffffff168473ffffffffffffffffffffffffffffffffffffffff167fddf252ad1be2c89b69c2b068fc378daa952ba7f163c4a11628f55a4df523b3ef60405160405180910390a46129198383836130b3565b505050565b8173ffffffffffffffffffffffffffffffffffffffff168373ffffffffffffffffffffffffffffffffffffffff16141561298d576040517f08c379a000000000000000000000000000000000000000000000000000000000815260040161298490614ea0565b60405180910390fd5b80600560008573ffffffffffffffffffffffffffffffffffffffff1673ffffffffffffffffffffffffffffffffffffffff16815260200190815260200160002060008473ffffffffffffffffffffffffffffffffffffffff1673ffffffffffffffffffffffffffffffffffffffff16815260200190815260200160002060006101000a81548160ff0219169083151502179055508173ffffffffffffffffffffffffffffffffffffffff168373ffffffffffffffffffffffffffffffffffffffff167f17307eab39ab6107e8899845ad3d59bd9653f200f220920489ca2b5937696c3183604051612a7e9190613663565b60405180910390a3505050565b612a968484846126b7565b612aa2848484846130b8565b612ae1576040517f08c379a0000000000000000000000000000000000000000000000000000000008152600401612ad890614f32565b60405180910390fd5b50505050565b60606000821415612b2f576040518060400160405280600181526020017f30000000000000000000000000000000000000000000000000000000000000008152509050612c43565b600082905060005b60008214612b61578080612b4a90614f52565b915050600a82612b5a9190614fca565b9150612b37565b60008167ffffffffffffffff811115612b7d57612b7c613b88565b5b6040519080825280601f01601f191660200182016040528015612baf5781602001600182028036833780820191505090505b5090505b60008514612c3c57600182612bc89190614abf565b9150600a85612bd79190614ffb565b6030612be39190614dfe565b60f81b818381518110612bf957612bf8614b88565b5b60200101907effffffffffffffffffffffffffffffffffffffffffffffffffffffffffffff1916908160001a905350600a85612c359190614fca565b9450612bb3565b8093505050505b919050565b60606000825190506000811415612c715760405180602001604052806000815250915050612ddb565b60006003600283612c829190614dfe565b612c8c9190614fca565b6004612c98919061502c565b90506000602082612ca99190614dfe565b67ffffffffffffffff811115612cc257612cc1613b88565b5b6040519080825280601f01601f191660200182016040528015612cf45781602001600182028036833780820191505090505b509050600060405180606001604052806040815260200161535f604091399050600181016020830160005b86811015612d985760038101905062ffffff818a015116603f8160121c168401518060081b905060ff603f83600c1c1686015116810190508060081b905060ff603f8360061c1686015116810190508060081b905060ff603f831686015116810190508060e01b90508084526004840193505050612d1f565b506003860660018114612db25760028114612dc257612dcd565b613d3d60f01b6002830352612dcd565b603d60f81b60018303525b508484525050819450505050505b919050565b612e7c84848484604051602401612dfa9493929190615086565b6040516020818303038152906040527fd5cf17d0000000000000000000000000000000000000000000000000000000007bffffffffffffffffffffffffffffffffffffffffffffffffffffffff19166020820180517bffffffffffffffffffffffffffffffffffffffffffffffffffffffff8381831617835250505050613085565b50505050565b612f1a8282604051602401612e989291906150d9565b6040516020818303038152906040527f4b5c4277000000000000000000000000000000000000000000000000000000007bffffffffffffffffffffffffffffffffffffffffffffffffffffffff19166020820180517bffffffffffffffffffffffffffffffffffffffffffffffffffffffff8381831617835250505050613085565b5050565b612fb68282604051602401612f34929190615110565b6040516020818303038152906040527f9710a9d0000000000000000000000000000000000000000000000000000000007bffffffffffffffffffffffffffffffffffffffffffffffffffffffff19166020820180517bffffffffffffffffffffffffffffffffffffffffffffffffffffffff8381831617835250505050613085565b5050565b600081600001549050919050565b612fe282826040518060200160405280600081525061324f565b5050565b613080838383604051602401612ffe93929190615140565b6040516020818303038152906040527f969cdd03000000000000000000000000000000000000000000000000000000007bffffffffffffffffffffffffffffffffffffffffffffffffffffffff19166020820180517bffffffffffffffffffffffffffffffffffffffffffffffffffffffff8381831617835250505050613085565b505050565b60008151905060006a636f6e736f6c652e6c6f679050602083016000808483855afa5050505050565b505050565b505050565b60006130d98473ffffffffffffffffffffffffffffffffffffffff166132aa565b15613242578373ffffffffffffffffffffffffffffffffffffffff1663150b7a02613102612518565b8786866040518563ffffffff1660e01b815260040161312494939291906151d3565b602060405180830381600087803b15801561313e57600080fd5b505af192505050801561316f57506040513d601f19601f8201168201806040525081019061316c9190615234565b60015b6131f2573d806000811461319f576040519150601f19603f3d011682016040523d82523d6000602084013e6131a4565b606091505b506000815114156131ea576040517f08c379a00000000000000000000000000000000000000000000000000000000081526004016131e190614f32565b60405180910390fd5b805181602001fd5b63150b7a0260e01b7bffffffffffffffffffffffffffffffffffffffffffffffffffffffff1916817bffffffffffffffffffffffffffffffffffffffffffffffffffffffff191614915050613247565b600190505b949350505050565b61325983836132cd565b61326660008484846130b8565b6132a5576040517f08c379a000000000000000000000000000000000000000000000000000000000815260040161329c90614f32565b60405180910390fd5b505050565b6000808273ffffffffffffffffffffffffffffffffffffffff163b119050919050565b600073ffffffffffffffffffffffffffffffffffffffff168273ffffffffffffffffffffffffffffffffffffffff16141561333d576040517f08c379a0000000000000000000000000000000000000000000000000000000008152600401613334906152ad565b60405180910390fd5b613346816124ac565b15613386576040517f08c379a000000000000000000000000000000000000000000000000000000000815260040161337d90615319565b60405180910390fd5b613392600083836130ae565b6001600360008473ffffffffffffffffffffffffffffffffffffffff1673ffffffffffffffffffffffffffffffffffffffff16815260200190815260200160002060008282546133e29190614dfe565b92505081905550816002600083815260200190815260200160002060006101000a81548173ffffffffffffffffffffffffffffffffffffffff021916908373ffffffffffffffffffffffffffffffffffffffff160217905550808273ffffffffffffffffffffffffffffffffffffffff16600073ffffffffffffffffffffffffffffffffffffffff167fddf252ad1be2c89b69c2b068fc378daa952ba7f163c4a11628f55a4df523b3ef60405160405180910390a46134a3600083836130b3565b5050565b6040518060a0016040528060608152602001606081526020016000815260200160008152602001600081525090565b6040518060c001604052806000815260200160608152602001606081526020016000815260200160008152602001600081525090565b82805461351890613fcb565b90600052602060002090601f01602090048101928261353a5760008555613581565b82601f1061355357805160ff1916838001178555613581565b82800160010185558215613581579182015b82811115613580578251825591602001919060010190613565565b5b50905061358e9190613592565b5090565b5b808211156135ab576000816000905550600101613593565b5090565b6000604051905090565b600080fd5b600080fd5b60007fffffffff0000000000000000000000000000000000000000000000000000000082169050919050565b6135f8816135c3565b811461360357600080fd5b50565b600081359050613615816135ef565b92915050565b600060208284031215613631576136306135b9565b5b600061363f84828501613606565b91505092915050565b60008115159050919050565b61365d81613648565b82525050565b60006020820190506136786000830184613654565b92915050565b600081519050919050565b600082825260208201905092915050565b60005b838110156136b857808201518184015260208101905061369d565b838111156136c7576000848401525b50505050565b6000601f19601f8301169050919050565b60006136e98261367e565b6136f38185613689565b935061370381856020860161369a565b61370c816136cd565b840191505092915050565b6000819050919050565b61372a81613717565b82525050565b600060a083016000830151848203600086015261374d82826136de565b9150506020830151848203602086015261376782826136de565b915050604083015161377c6040860182613721565b50606083015161378f6060860182613721565b5060808301516137a26080860182613721565b508091505092915050565b600060208201905081810360008301526137c78184613730565b905092915050565b600082825260208201905092915050565b60006137eb8261367e565b6137f581856137cf565b935061380581856020860161369a565b61380e816136cd565b840191505092915050565b6000602082019050818103600083015261383381846137e0565b905092915050565b61384481613717565b811461384f57600080fd5b50565b6000813590506138618161383b565b92915050565b60006020828403121561387d5761387c6135b9565b5b600061388b84828501613852565b91505092915050565b600073ffffffffffffffffffffffffffffffffffffffff82169050919050565b60006138bf82613894565b9050919050565b6138cf816138b4565b82525050565b60006020820190506138ea60008301846138c6565b92915050565b6138f9816138b4565b811461390457600080fd5b50565b600081359050613916816138f0565b92915050565b60008060408385031215613933576139326135b9565b5b600061394185828601613907565b925050602061395285828601613852565b9150509250929050565b600080600060608486031215613975576139746135b9565b5b600061398386828701613907565b935050602061399486828701613907565b92505060406139a586828701613852565b9150509250925092565b6000602082840312156139c5576139c46135b9565b5b60006139d384828501613907565b91505092915050565b6139e581613717565b82525050565b6000602082019050613a0060008301846139dc565b92915050565b6000613a1182613894565b9050919050565b613a2181613a06565b82525050565b6000602082019050613a3c6000830184613a18565b92915050565b600060c082019050613a5760008301896139dc565b8181036020830152613a6981886137e0565b90508181036040830152613a7d81876137e0565b9050613a8c60608301866139dc565b613a9960808301856139dc565b613aa660a08301846139dc565b979650505050505050565b613aba81613648565b8114613ac557600080fd5b50565b600081359050613ad781613ab1565b92915050565b60008060408385031215613af457613af36135b9565b5b6000613b0285828601613907565b9250506020613b1385828601613ac8565b9150509250929050565b600060a0820190508181036000830152613b3781886137e0565b90508181036020830152613b4b81876137e0565b9050613b5a60408301866139dc565b613b6760608301856139dc565b613b7460808301846139dc565b9695505050505050565b600080fd5b600080fd5b7f4e487b7100000000000000000000000000000000000000000000000000000000600052604160045260246000fd5b613bc0826136cd565b810181811067ffffffffffffffff82111715613bdf57613bde613b88565b5b80604052505050565b6000613bf26135af565b9050613bfe8282613bb7565b919050565b600067ffffffffffffffff821115613c1e57613c1d613b88565b5b613c27826136cd565b9050602081019050919050565b82818337600083830152505050565b6000613c56613c5184613c03565b613be8565b905082815260208101848484011115613c7257613c71613b83565b5b613c7d848285613c34565b509392505050565b600082601f830112613c9a57613c99613b7e565b5b8135613caa848260208601613c43565b91505092915050565b60008060008060808587031215613ccd57613ccc6135b9565b5b6000613cdb87828801613907565b9450506020613cec87828801613907565b9350506040613cfd87828801613852565b925050606085013567ffffffffffffffff811115613d1e57613d1d6135be565b5b613d2a87828801613c85565b91505092959194509250565b600081519050919050565b600082825260208201905092915050565b6000819050602082019050919050565b600060c083016000830151613d7a6000860182613721565b5060208301518482036020860152613d9282826136de565b91505060408301518482036040860152613dac82826136de565b9150506060830151613dc16060860182613721565b506080830151613dd46080860182613721565b5060a0830151613de760a0860182613721565b508091505092915050565b6000613dfe8383613d62565b905092915050565b6000602082019050919050565b6000613e1e82613d36565b613e288185613d41565b935083602082028501613e3a85613d52565b8060005b85811015613e765784840389528151613e578582613df2565b9450613e6283613e06565b925060208a01995050600181019050613e3e565b50829750879550505050505092915050565b60006020820190508181036000830152613ea28184613e13565b905092915050565b600060c083016000830151613ec26000860182613721565b5060208301518482036020860152613eda82826136de565b91505060408301518482036040860152613ef482826136de565b9150506060830151613f096060860182613721565b506080830151613f1c6080860182613721565b5060a0830151613f2f60a0860182613721565b508091505092915050565b60006020820190508181036000830152613f548184613eaa565b905092915050565b60008060408385031215613f7357613f726135b9565b5b6000613f8185828601613907565b9250506020613f9285828601613907565b9150509250929050565b7f4e487b7100000000000000000000000000000000000000000000000000000000600052602260045260246000fd5b60006002820490506001821680613fe357607f821691505b60208210811415613ff757613ff6613f9c565b5b50919050565b7f4552433732313a20617070726f76656420717565727920666f72206e6f6e657860008201527f697374656e7420746f6b656e0000000000000000000000000000000000000000602082015250565b6000614059602c836137cf565b915061406482613ffd565b604082019050919050565b600060208201905081810360008301526140888161404c565b9050919050565b7f4552433732313a20617070726f76616c20746f2063757272656e74206f776e6560008201527f7200000000000000000000000000000000000000000000000000000000000000602082015250565b60006140eb6021836137cf565b91506140f68261408f565b604082019050919050565b6000602082019050818103600083015261411a816140de565b9050919050565b7f4552433732313a20617070726f76652063616c6c6572206973206e6f74206f7760008201527f6e6572206e6f7220617070726f76656420666f7220616c6c0000000000000000602082015250565b600061417d6038836137cf565b915061418882614121565b604082019050919050565b600060208201905081810360008301526141ac81614170565b9050919050565b7f4552433732313a207472616e736665722063616c6c6572206973206e6f74206f60008201527f776e6572206e6f7220617070726f766564000000000000000000000000000000602082015250565b600061420f6031836137cf565b915061421a826141b3565b604082019050919050565b6000602082019050818103600083015261423e81614202565b9050919050565b600081905092915050565b50565b6000614260600083614245565b915061426b82614250565b600082019050919050565b600061428182614253565b9150819050919050565b7f4661696c656420746f2073656e64204574686572000000000000000000000000600082015250565b60006142c16014836137cf565b91506142cc8261428b565b602082019050919050565b600060208201905081810360008301526142f0816142b4565b9050919050565b7f4552433732313a206f776e657220717565727920666f72206e6f6e657869737460008201527f656e7420746f6b656e0000000000000000000000000000000000000000000000602082015250565b60006143536029836137cf565b915061435e826142f7565b604082019050919050565b6000602082019050818103600083015261438281614346565b9050919050565b7f4552433732313a2062616c616e636520717565727920666f7220746865207a6560008201527f726f206164647265737300000000000000000000000000000000000000000000602082015250565b60006143e5602a836137cf565b91506143f082614389565b604082019050919050565b60006020820190508181036000830152614414816143d8565b9050919050565b600081905092915050565b7f7b226e616d65223a202200000000000000000000000000000000000000000000600082015250565b600061445c600a8361441b565b915061446782614426565b600a82019050919050565b600061447d8261367e565b614487818561441b565b935061449781856020860161369a565b80840191505092915050565b7f202d2d204e465420233a20000000000000000000000000000000000000000000600082015250565b60006144d9600b8361441b565b91506144e4826144a3565b600b82019050919050565b7f222c20226465736372697074696f6e223a20224120536f6c6469657220416e7460008201527f20436f6d626174204e4654204d65746176657273652047616d65222c2022226960208201527f6d616765223a2022697066733a2f2f0000000000000000000000000000000000604082015250565b6000614571604f8361441b565b915061457c826144ef565b604f82019050919050565b7f222c202261747472696275746573223a205b207b202274726169745f7479706560008201527f223a20224865616c746820506f696e7473222c202276616c7565223a20000000602082015250565b60006145e3603d8361441b565b91506145ee82614587565b603d82019050919050565b7f2c20226d61785f76616c7565223a000000000000000000000000000000000000600082015250565b600061462f600e8361441b565b915061463a826145f9565b600e82019050919050565b7f7d2c207b202274726169745f74797065223a202241747461636b2044616d616760008201527f65222c202276616c7565223a2000000000000000000000000000000000000000602082015250565b60006146a1602d8361441b565b91506146ac82614645565b602d82019050919050565b7f7d205d7d00000000000000000000000000000000000000000000000000000000600082015250565b60006146ed60048361441b565b91506146f8826146b7565b600482019050919050565b600061470e8261444f565b915061471a8289614472565b9150614725826144cc565b91506147318288614472565b915061473c82614564565b91506147488287614472565b9150614753826145d6565b915061475f8286614472565b915061476a82614622565b91506147768285614472565b915061478182614694565b915061478d8284614472565b9150614798826146e0565b9150819050979650505050505050565b7f646174613a6170706c69636174696f6e2f6a736f6e3b6261736536342c000000600082015250565b60006147de601d8361441b565b91506147e9826147a8565b601d82019050919050565b60006147ff826147d1565b915061480b8284614472565b915081905092915050565b7f4572726f723a2047616d65204f7665722c20636861726163746572206d75737460008201527f206861766520485020746f2061747461636b20626f73732e0000000000000000602082015250565b60006148726038836137cf565b915061487d82614816565b604082019050919050565b600060208201905081810360008301526148a181614865565b9050919050565b7f4572726f723a20626f7373206d757374206861766520485020746f206174746160008201527f636b20626f73732e000000000000000000000000000000000000000000000000602082015250565b60006149046028836137cf565b915061490f826148a8565b604082019050919050565b60006020820190508181036000830152614933816148f7565b9050919050565b60008190508160005260206000209050919050565b6000815461495c81613fcb565b61496681866137cf565b945060018216600081146149815760018114614993576149c6565b60ff19831686526020860193506149c6565b61499c8561493a565b60005b838110156149be5781548189015260018201915060208101905061499f565b808801955050505b50505092915050565b60006060820190506149e460008301866138c6565b6149f160208301856139dc565b8181036040830152614a03818461494f565b9050949350505050565b6000819050919050565b6000819050919050565b6000614a3c614a37614a3284614a0d565b614a17565b613717565b9050919050565b614a4c81614a21565b82525050565b6000606082019050614a6760008301866138c6565b614a746020830185614a43565b8181036040830152614a86818461494f565b9050949350505050565b7f4e487b7100000000000000000000000000000000000000000000000000000000600052601160045260246000fd5b6000614aca82613717565b9150614ad583613717565b925082821015614ae857614ae7614a90565b5b828203905092915050565b6000604082019050614b0860008301856139dc565b614b1560208301846139dc565b9392505050565b7f4e6f7420656e6f756768204d6f6e657920746f20706169640000000000000000600082015250565b6000614b526018836137cf565b9150614b5d82614b1c565b602082019050919050565b60006020820190508181036000830152614b8181614b45565b9050919050565b7f4e487b7100000000000000000000000000000000000000000000000000000000600052603260045260246000fd5b6000606082019050614bcc60008301866138c6565b614bd960208301856139dc565b614be660408301846139dc565b949350505050565b60006080820190508181036000830152614c0881876137e0565b90508181036020830152614c1c81866137e0565b9050614c2b60408301856139dc565b8181036060830152614c3d81846137e0565b905095945050505050565b7f4552433732313a206f70657261746f7220717565727920666f72206e6f6e657860008201527f697374656e7420746f6b656e0000000000000000000000000000000000000000602082015250565b6000614ca4602c836137cf565b9150614caf82614c48565b604082019050919050565b60006020820190508181036000830152614cd381614c97565b9050919050565b7f4552433732313a207472616e736665722066726f6d20696e636f72726563742060008201527f6f776e6572000000000000000000000000000000000000000000000000000000602082015250565b6000614d366025836137cf565b9150614d4182614cda565b604082019050919050565b60006020820190508181036000830152614d6581614d29565b9050919050565b7f4552433732313a207472616e7366657220746f20746865207a65726f2061646460008201527f7265737300000000000000000000000000000000000000000000000000000000602082015250565b6000614dc86024836137cf565b9150614dd382614d6c565b604082019050919050565b60006020820190508181036000830152614df781614dbb565b9050919050565b6000614e0982613717565b9150614e1483613717565b9250827fffffffffffffffffffffffffffffffffffffffffffffffffffffffffffffffff03821115614e4957614e48614a90565b5b828201905092915050565b7f4552433732313a20617070726f766520746f2063616c6c657200000000000000600082015250565b6000614e8a6019836137cf565b9150614e9582614e54565b602082019050919050565b60006020820190508181036000830152614eb981614e7d565b9050919050565b7f4552433732313a207472616e7366657220746f206e6f6e20455243373231526560008201527f63656976657220696d706c656d656e7465720000000000000000000000000000602082015250565b6000614f1c6032836137cf565b9150614f2782614ec0565b604082019050919050565b60006020820190508181036000830152614f4b81614f0f565b9050919050565b6000614f5d82613717565b91507fffffffffffffffffffffffffffffffffffffffffffffffffffffffffffffffff821415614f9057614f8f614a90565b5b600182019050919050565b7f4e487b7100000000000000000000000000000000000000000000000000000000600052601260045260246000fd5b6000614fd582613717565b9150614fe083613717565b925082614ff057614fef614f9b565b5b828204905092915050565b600061500682613717565b915061501183613717565b92508261502157615020614f9b565b5b828206905092915050565b600061503782613717565b915061504283613717565b9250817fffffffffffffffffffffffffffffffffffffffffffffffffffffffffffffffff048311821515161561507b5761507a614a90565b5b828202905092915050565b600060808201905081810360008301526150a081876137e0565b905081810360208301526150b481866137e0565b90506150c360408301856139dc565b6150d060608301846139dc565b95945050505050565b600060408201905081810360008301526150f381856137e0565b9050818103602083015261510781846137e0565b90509392505050565b6000604082019050818103600083015261512a81856137e0565b905061513960208301846139dc565b9392505050565b6000606082019050818103600083015261515a81866137e0565b905061516960208301856139dc565b61517660408301846139dc565b949350505050565b600081519050919050565b600082825260208201905092915050565b60006151a58261517e565b6151af8185615189565b93506151bf81856020860161369a565b6151c8816136cd565b840191505092915050565b60006080820190506151e860008301876138c6565b6151f560208301866138c6565b61520260408301856139dc565b8181036060830152615214818461519a565b905095945050505050565b60008151905061522e816135ef565b92915050565b60006020828403121561524a576152496135b9565b5b60006152588482850161521f565b91505092915050565b7f4552433732313a206d696e7420746f20746865207a65726f2061646472657373600082015250565b60006152976020836137cf565b91506152a282615261565b602082019050919050565b600060208201905081810360008301526152c68161528a565b9050919050565b7f4552433732313a20746f6b656e20616c7265616479206d696e74656400000000600082015250565b6000615303601c836137cf565b915061530e826152cd565b602082019050919050565b60006020820190508181036000830152615332816152f6565b905091905056fe506c617965722061747461636b656420626f73732e204e657720626f73732068703a2025734142434445464748494a4b4c4d4e4f505152535455565758595a6162636465666768696a6b6c6d6e6f707172737475767778797a303132333435363738392b2f426f73732061747461636b656420706c617965722e204e657720706c617965722068703a2025730a4d696e746564204e465420772f20746f6b656e496420257320616e6420636861726163746572496e6465782025730a506c6179657220772f206368617261637465722025732061626f757420746f2061747461636b2e2048617320257320485020616e64202573204144a264697066735822122052f6f5e88c989b3991767bc0cb8bf2f3e0a5da2d02f16fef8c1f4db40c76ac2a64736f6c63430008080033446f6e6520696e697469616c697a696e6720257320772f2048502025732c20696d67202573446f6e6520696e697469616c697a696e6720626f737320257320772f2048502025732c20696d67202573",
  "linkReferences": {},
  "deployedLinkReferences": {}
}